:020000000B28CB
:10000800DE00030E8312A3000A08A400882A0C2825
:100018008312D101D201D301D401D501830114285F
:10002800AD23E123F02355233623831696158B172A
:100038000B178B152C290030C0236D231D3083121C
:10004800C20004309A2315308312C20003309A2369
:100058008312D0013B280D30C900FB30C800C80B03
:100068003328C90B3328382801308312D00764306D
:10007800500203184028412846285308031D4528E4
:1000880046282F286D238312A701A70A04301423BA
:1000980072308312B6000030B700BD2283122808E0
:1000A800B1002708B0000A30B2000030B300EE22D9
:1000B80083123108B9003008B8000C2283123608C0
:1000C800013ECA0037080318013E003ECB004B082A
:1000D800B1004A08B0000A30B2000030B300EE2286
:1000E80083123108D2003008D1000C297030B600D4
:1000F8001730B7005208B9005108B8000C22831213
:100108003608013E8400D123C20004309A230A3005
:100118008312BD000030BE005830B6000230B70070
:100128005208B9005108B8000C2283123708C000E1
:100138003608BF004F2283123D08013E8400D123B8
:10014800C20003309A230A308312B6000030B70089
:100158005208B9005108B8000C2283123708C000B1
:100168003608BF003C30BD000030BE004F2283126D
:100178003E08CD003D08CC000A30B6000030B7007C
:100188004D08B9004C08B8000C2283123608013E0D
:100198008400D123C20002309A230A308312B600A9
:1001A8000030B7005208B9005108B8000C22831279
:1001B8003708C0003608BF003C30BD000030BE0024
:1001C8004F2283123E08CF003D08CE000A30BD0002
:1001D8000030BE004F08C0004E08BF004F228312F7
:1001E8003D08013E8400D123C20001309A238030AB
:1001F8008312C9004430C800C80B0029C90B002964
:10020800000001308312D1020030031CD203D20255
:100218005108520403191129122917295308031DDB
:10022800162917297A28A701043014238312D30129
:100238006D231D308312C20005309A234730831284
:10024800C20004309A2347308312C20003309A2335
:1002580083125308031D312932291F282C290B2802
:100268008312B000270803193A293B295029013085
:10027800AA00300A41290310AA0DFF3E031D3F2999
:100288002A08FF3A831605058312AB00AC012B0838
:10029800AE002C08AF006729300ADF000130AA0041
:1002A8000030AB005A290310AA0DAB0DDF0B5729FC
:1002B8002A08831605048312AC002B08AD002C080D
:1002C800AE002D08AF002E08831685008312270381
:1002D800031D6F2970298F292803031D7429752987
:1002E80081290130AA00300A7B290310AA0DFF3E9C
:1002F800031D79292A08D4048D290130AA00300A5F
:1003080087290310AA0DFF3E031D85292A08FF3AF5
:10031800D405540885002903031D93299429A52988
:100328007F308316810501308312AA00300A9E2986
:100338000310AA0DFF3E031D9C292A088316950465
:10034800B2290130AA00300AAB290310AA0DFF3EDA
:10035800031DA9292A08FF3A831695050800831268
:10036800A701053014238312B101B20183123108A9
:100378000F3CAC00AC0A0130AD000030AE00C7291C
:100388000310AD0DAE0DAC0BC4292A082D05AF0026
:100398002B082E05B0002F0830040319D429D529BD
:1003A800DA29A701A70A01301423DD29A7010130A2
:1003B800142310308312AC00AC0BE0290000831228
:1003C800A701A70A0230142310308312AC00AC0B2B
:1003D800EB2900008312A701023014230130831295
:1003E800B1070318B20A0030B2073208803ADF00BA
:1003F80080305F02031D022A10303102031C052AD7
:10040800062ABA298312A701A70A0530142308006F
:100418008312BA01BB01360837040319142A152AB6
:100428004A2A0130BC00212A01300310B60DB70D4D
:10043800FF3E031D192A0130BC07B71F242A252AAD
:10044800182A01300310BA0DBB0DFF3E031D262AE2
:1004580037083902031D322A36083802031C352AA8
:10046800362A3D2A3608B8023708031CB903B902F0
:100478003A1401300310B70CB60CFF3E031D3E2A98
:100488000130BC02031D492A4A2A252A3B08B70025
:100498003A08B600080083123D083E040319552A9D
:1004A800562A832A0130C100622A01300310BD0D8B
:1004B800BE0DFF3E031D5A2A0130C107BE1F652A23
:1004C800662A592A3E084002031D6C2A3D083F024D
:1004D800031C6F2A702A762A3D08BF023E08031CB7
:1004E800C003C00201300310BE0CBD0CFF3E031D4B
:1004F800772A0130C102031D822A832A662A40080E
:10050800BE003F08BD0008000B1C8B2A8C2AB52AA8
:10051800A501A601AD2A01308312A5070318A60A72
:100528000030A6072130A200A20B982A0B308312B4
:100538002602B93003192502031CA32AA42AAD2ACE
:1005480053080319A82AAA2A0130AB2A0030D3007D
:10055800B42A03308523003A0319B32AB42A8F2A10
:100568000B10831224088A00230E8300DE0E5E0E11
:10057800090083129F18C12AC22ABD2A9F1FC52AB3
:10058800C62ACD2A1E08A80083161E088312A700B3
:10059800ED2A83161E088312A90006300310A90C41
:1005A800FF3E031DD22A2908AA00AB011E08AC0091
:1005B800AD010310AC0DAD0D0310AC0DAD0D2A0847
:1005C8002C04AE002B082D04AF002E08A7002F081E
:1005D800A80008008312B401B501301CF42AF52ADA
:1005E800FB2A3208B4070318B50A3308B5070130E7
:1005F8000310B20DB30DFF3E031DFC2A013003109A
:10060800B10CB00CFF3E031D032B30083104031D51
:100618000E2B0F2BF12A3508B1003408B000080062
:100628008312A9002703031D1A2B1B2B272B01302C
:10063800A800290A212B0310A80DFF3E031D1F2B1C
:100648002808D404332B0130A800290A2D2B0310C5
:10065800A80DFF3E031D2B2B2808FF3AD40554088C
:100668008500080000308312AA000930AB00B321CE
:100678000F308312AA000A30AB00B321F73083127F
:10068800AA00FB30AB00B32101308312AA000C3062
:10069800AB00B32100308312AA000F30AB00B321A6
:1006A80008008312A701A70AA801A80AA901013016
:1006B80034218312A701A70AA801A9010230342115
:1006C8008312A701A70AA801A80AA90105303421A5
:1006D800080001308312B5003508B300B4013308AF
:1006E800B400B3013308AA003408AB00B3210130C9
:1006F8008312B50709303502031C832B842B702B1A
:1007080008008312A1000130A000210A8D2B0310DC
:10071800A00DFF3E031D8B2B200805050319952B03
:10072800962B982B0130992B003008008312C700B4
:100738004208C300C4014708C500C6014508C600F1
:10074800C50143084504AA0044084604AB00B32188
:10075800080083161F140514FD309F05FD3085051C
:10076800FB309F05FB3085058515F7309F05EF3079
:100778008505DF30850508008312A800F3309F0542
:100788002808A70001300310A70DFF3E031DC72B43
:100798000310270D9F049F14080003308A000408E3
:1007A800840A820700347E3430346D34793433342B
:1007B8005B345F3470347F347B348312A701A80123
:1007C800A901A90A033034218312A701A70AA801A5
:1007D800A90104303421080083121F14BF309F057B
:1007E8001F088F3083169F051F167F3083129F05C1
:0207F8000800F7
:02400E009431EB
:00000001FF
