:020000000B28CB
:10000800DE00030E8312A3000A08A400BB2A0C28F2
:100018008312C801C901CA01CB01CC01830114288C
:100028006723AE23BD2326230723831696158B1734
:100038000B178B1583124A0803191E2800308D23CD
:100048003E231D308312B30004305423153083122D
:10005800B300033054238312C70141284A08031907
:1000680045280D30BE00FB30BD00BD0B3928BE0B46
:1000780039283E2801308312C70764304702031C21
:1000880032283E238312A701A70A0430E7228E22D2
:1000980083122708BD002808BE00BF01C001400820
:1000A800B3003F08B2003E08B1003D08B000003080
:1000B800B7000030B6000030B5005930B400E22176
:1000C80083123008C1003108C2003208C300330867
:1000D800C4000A300310C40CC30CC20CC10CFF3E90
:1000E800031D6E284108013EC80042080318013E5E
:1000F800003EC900FF284A08031903290530BF003C
:100108000F30BE00F130BD00BD0B8828BE0B88281B
:10011800BF0B882858308312A7000230A80049086E
:10012800AA004808A900222283122708013E840059
:100138009E23B300043054230A308312AE000030EB
:10014800AF003C30A7000030A8004908AA004808C2
:10015800A900222283122808B1002708B0005D22D6
:1001680083122E08013E84009E23B30003305423DB
:100178000A308312A7000030A8004908B1004808D7
:10018800B0003C30AE000030AF005D2283122F0873
:10019800AA002E08A900222283122708013E840003
:1001A8009E23B3000230542383124908B100480843
:1001B800B0003C30AE000030AF005D2283122F0843
:1001C800C6002E08C5000A30AE000030AF00460851
:1001D800B1004508B0005D2283122E08013E84005C
:1001E8009E23B3000130542301308312C80200302B
:1001F800031CC903C90248084904031D7F28A70135
:100208000430E7228312CA013E231D308312B30053
:100218000530542347308312B30004305423473049
:100228008312B300033054231E288312B00027081A
:10023800031932290130AA00300A24290310AA0D13
:10024800FF3E031D22292A08FF3A8316050583125B
:10025800AB00AC012B08AE002C084829300ADF009F
:100268000130AA000030AB003C290310AA0DAB0DE9
:10027800DF0B39292A08831605048312AC002B08E2
:10028800AD002C08AE002D08AF002E08831685009F
:1002980083122703031D6D292803031D5F290130DD
:1002A800AA00300A59290310AA0DFF3E031D572939
:1002B8002A08CB046B290130AA00300A65290310EB
:1002C800AA0DFF3E031D63292A08FF3ACB054B08F8
:1002D80085002903031D81297F308316810501309C
:1002E8008312AA00300A7A290310AA0DFF3E031DC3
:1002F80078292A088316950408000130AA00300AD4
:1003080087290310AA0DFF3E031D85292A08FF3AF5
:100318008316950508008312A7010530E72283128A
:10032800B101B201831231080F3CAC00AC0A0130B4
:10033800AD000030AE00A3290310AD0DAE0DAC0B1F
:10034800A0292A082D05AF002B082E05B0002F087C
:1003580030040319B229A701A70AB329A70101305C
:10036800E72210308312AC00AC0BB82900008312CE
:10037800A701A70A0230E72210308312AC00AC0BA9
:10038800C32900008312A7010230E722013083123B
:10039800B1070318B20A0030B2073208803ADF000A
:1003A80080305F02031DDA2910303102031C9629C0
:1003B8008312A701A70A0530E7220800003083123C
:1003C800BC000030BB000030BA000030B900301C5F
:1003D800012A3408B907350803110318013E031D23
:1003E800BA07360803110318013E031DBB07370877
:1003F80003110318013E031DBC070130B8000310A8
:10040800B40DB50DB60DB70DB80B032A01300310A6
:10041800B30CB20CB10CB00CFF3E031D0B2A330811
:10042800320431043004031DEB293C08B3003B08B7
:10043800B2003A08B1003908B00008008312AB01D5
:10044800AC01270828040319582A0130AD00A81B5D
:10045800372A01300310A70DA80DFF3E031D2E2AD1
:100468000130AD072B2A01300310AB0DAC0DFF3E58
:10047800031D382A28082A02031D442A27082902AE
:10048800031C4D2A2708A9022808031CAA03AA024C
:100498002B1401300310A80CA70CFF3E031D4E2A95
:1004A8000130AD02031D372A2C08A8002B08A7002D
:1004B800080083122E082F040319892A0130B2007C
:1004C800AF1B702A01300310AE0DAF0DFF3E031DA8
:1004D800672A0130B207642A2F083102031D762AE1
:1004E8002E083002031C7E2A2E08B0022F08031C97
:1004F800B103B10201300310AF0CAE0CFF3E031D77
:100508007F2A0130B202031D702A3108AF0030087B
:10051800AE00080083129F188E2A9F1F9A2A1E0871
:10052800A80083161E088312A700080083161E0859
:100538008312A90006300310A90CFF3E031D9F2A51
:100548002908AA00AB011E08AC00AD010310AC0DD0
:10055800AD0D0310AC0DAD0D2A082C04AE002B0810
:100568002D04AF002E08A7002F08A80008000B1CB8
:10057800DF2AA501A60103307A23003A031DDE2AEB
:1005880001308312A5070318A60A0030A6072130F8
:10059800A200A20BCD2A0B3083122602B930031910
:1005A8002502031CBF2A4A08031DDC2A0130DD2A64
:1005B8000030CA000B10831224088A00230E83001F
:1005C800DE0E5E0E09008312A9002703031DF82A18
:1005D8000130A800290AF22A0310A80DFF3E031DC6
:1005E800F02A2808CB04042B0130A800290AFE2A87
:1005F8000310A80DFF3E031DFC2A2808FF3ACB056F
:100608004B088500080000308312AA000930AB00AF
:100618008F210F308312AA000A30AB008F21F730E8
:100628008312AA00FB30AB008F2101308312AA008D
:100638000C30AB008F2100308312AA000F30AB00C2
:100648008F2108008312A701A70AA801A80AA901F7
:10065800013019218312A701A70AA801A9010230B4
:1006680019218312A701A70AA801A80AA901053020
:100678001921080001308312B5003508B300B40110
:100688003308B400B3013308AA003408AB008F2143
:1006980001308312B5070930350203180800412BD1
:1006A8008312B8003308B400B5013808B600B701A2
:1006B8003608B700B60134083604AA0035083704EE
:1006C800AB008F21080083161F140514FD309F0509
:1006D800FD308505FB309F05FB3085058515F73016
:1006E8009F05EF308505DF30850508008312A100DE
:1006F8000130A000210A822B0310A00DFF3E031D2C
:10070800802B2008050503198B2B013008000030C9
:1007180008008312A800F3309F052808A7000130BD
:100728000310A70DFF3E031D942B0310270D9F04F4
:100738009F14080003308A000408840A82070034E2
:100748007E3430346D34793433345B345F34703410
:100758007F347B348312A701A801A901A90A0330B9
:1007680019218312A701A70AA801A9010430192198
:10077800080083121F14BF309F051F088F3083168F
:0C0788009F051F167F3083129F0508009C
:02400E009431EB
:00000001FF
