:10000000F62B00308A000408840A820700347E340C
:1000100030346D34793433345B345F3470347F344E
:100020007B3477341F344E343D344F3447343734C7
:0C0030001E340E3415341D3467343E3489
:1003660083121F14BF309F051F088F3083169F0509
:100376001F167F3083129F0508008312A001A1017A
:10038600A201033081238312A001A00AA101A201C8
:10039600043081230800EF21C021B3210222192253
:1003A6000030B500BC30B4006130B3004E30B2004E
:1003B6005322DC29B1002C08AD00AE013108AF0094
:1003C600B0012F08B000AF012D082F04A3002E089E
:1003D6003004A400D722080083161F140514FD302C
:1003E6009F05FD308505FB309F05FB30850585158E
:1003F600F7309F05EF308505DF3085050800A00141
:10040600A00AA101A10AA201013081238312A00141
:10041600A00AA101A201023081238312A001A00A31
:10042600A101A10AA2010530812308000030831230
:10043600A3000930A400D7220F30A3000A30A4007D
:10044600D722F730A300FB30A400D7220130A30047
:100456000C30A400D7220030A3000F30A400D7220E
:100466000800A2002003031D442A0130A100220A2D
:100476003E2A0310A10DFF3E031D3C2A2108BC04A1
:10048600502A0130A100220A4A2A0310A10DFF3E7C
:10049600031D482A2108FF3ABC053C0885000800D0
:1004A600B6010030A3000030A2000030A1000A30DF
:1004B600A0003508A7003408A6003308A5003208B6
:1004C600A4008D222008013E84000120AC003608DD
:1004D600013EDD210030A3000030A2000030A10063
:1004E6000A30A0003508A7003408A6003308A50086
:1004F6003208A40025232308B5002208B4002108E9
:10050600B3002008B2000130B607083036020318DF
:100516000800542A23082204210420040319CE2AA1
:100526000130A900A31BA32A0130A8000310A00DC7
:10053600A10DA20DA30DA80B992A0130A907952A92
:1005460023082702031DB12A22082602031DB12A09
:1005560021082502031DB12A20082402031CC12AF2
:100566002008A4022108031C210FA5022208031C4F
:10057600220FA6022308031C230FA7020130031033
:10058600A30CA20CA10CA00CFF3E031DC22A013035
:10059600A902031DA32A2708A3002608A2002508EE
:1005A600A1002408A0000800A00105303422AA01F9
:1005B600AB0183122A080F3CA500A50A0130A6004C
:1005C6000030A700E92A0310A60DA70DA50BE62A01
:1005D60023082605A80024082705A90028082904B9
:1005E6000319F82AA001A00AF92AA0010130342231
:1005F6001030A500A50BFD2A00008312A001A00A59
:10060600023034221030A500A50B072B0000831200
:10061600A001023034220130AA070318AB0A0030C9
:10062600AB072B08803ADF0080305F02031D1D2BCD
:1006360010302A02031CDC2A8312A001A00A05300E
:10064600342208000030AC000030AB000030AA00B5
:100656000030A90023082204210420040319782B62
:100666000130AD00A31B432B0130A8000310A00DE1
:10067600A10DA20DA30DA80B392B0130AD07352B0B
:100686000130A8000310A90DAA0DAB0DAC0DA80BE7
:10069600452B23082702031D5A2B22082602031D79
:1006A6005A2B21082502031D5A2B20082402031C5D
:1006B6006B2B2008A4022108031C210FA502220887
:1006C600031C220FA6022308031C230FA7022914CA
:1006D60001300310A30CA20CA10CA00CFF3E031DBD
:1006E6006C2B0130AD02031D432B2C08A3002B08F5
:1006F600A2002A08A1002908A0000800A9002008D5
:100706000319992B0130A300290A8B2B0310A30D83
:10071600FF3E031D892B2308FF3A83160505831226
:10072600A400A5012408A7002508AF2B290ADF008D
:100736000130A3000030A400A32B0310A30DA40DC9
:10074600DF0BA02B2308831605048312A5002408BB
:10075600A6002508A7002608A800270883168500F6
:1007660083122003031DD42B2103031DC62B013046
:10077600A300290AC02B0310A30DFF3E031DBE2BA9
:100786002308BC04D22B0130A300290ACC2B03106A
:10079600A30DFF3E031DCA2B2308FF3ABC053C08E8
:1007A60085002203031DE82B7F3083168105013067
:1007B6008312A300290AE12B0310A30DFF3E031D9C
:1007C600DF2B23088316950408000130A300290AAD
:1007D600EE2B0310A30DFF3E031DEC2B2308FF3A5F
:1007E6008316950508008312B701B801B901BA014D
:0807F600BB01BC018301CE2907
:02400E009431EB
:00000001FF
