:020000000B28CB
:10000800DE00030E8312A3000A08A400BC2A0C28F1
:100018008312C801C901CA01CB01CC01830114288C
:100028006823AF23BE2327230823831696158B172F
:100038000B178B1583124A0803191E2800308E23CC
:100048003F231D308312B30004305523153083122B
:10005800B300033055238312C70141284A08031906
:1000680045280D30BE00FB30BD00BD0B3928BE0B46
:1000780039283E2801308312C70764304702031C21
:1000880032283F238312A701A70A0430E8228F22CF
:1000980083122708BD002808BE00BF01C001400820
:1000A800B3003F08B2003E08B1003D08B000003080
:1000B800B7000030B6000030B5005930B400E32175
:1000C80083123008C1003108C2003208C300330867
:1000D800C4000A300310C40CC30CC20CC10CFF3E90
:1000E800031D6E284108013EC80042080318013E5E
:1000F800003EC90000294A08031904295830A700FE
:100108000230A8004908AA004808A900232283123F
:100118002708013E84009F23B300043055230A308A
:100128008312AE000030AF003C30A7000030A800BA
:100138004908AA004808A900232283122808B10008
:100148002708B0005E2283122E08013E84009F23F8
:10015800B300033055230A308312A7000030A800EB
:100168004908B1004808B0003C30AE000030AF008C
:100178005E2283122F08AA002E08A90023228312C8
:100188002708013E84009F23B300023055238312C1
:100198004908B1004808B0003C30AE000030AF005C
:1001A8005E2283122F08C6002E08C5000A30AE0052
:1001B8000030AF004608B1004508B0005E22831247
:1001C8002E08013E84009F23B300013055230530DB
:1001D8008312BF009130BE00CF30BD00BD0BF228A6
:1001E800BE0BF228BF0BF228F92801308312C8028F
:1001F8000030031CC903C90248084904031D7F28AD
:10020800A7010430E8228312CA013F231D3083125C
:10021800B3000530552347308312B300043055230B
:1002280047308312B300033055231E288312B000D1
:100238002708031933290130AA00300A2529031099
:10024800AA0DFF3E031D23292A08FF3A8316050538
:100258008312AB00AC012B08AE002C084929300AE8
:10026800DF000130AA000030AB003D290310AA0DC1
:10027800AB0DDF0B3A292A08831605048312AC005C
:100288002B08AD002C08AE002D08AF002E088316F1
:10029800850083122703031D6E292803031D602987
:1002A8000130AA00300A5A290310AA0DFF3E031D87
:1002B80058292A08CB046C290130AA00300A66297B
:1002C8000310AA0DFF3E031D64292A08FF3ACB0537
:1002D8004B0885002903031D82297F308316810579
:1002E80001308312AA00300A7B290310AA0DFF3EB1
:1002F800031D79292A088316950408000130AA00ED
:10030800300A88290310AA0DFF3E031D86292A08F2
:10031800FF3A8316950508008312A7010530E822E5
:100328008312B101B201831231080F3CAC00AC0A50
:100338000130AD000030AE00A4290310AD0DAE0DA4
:10034800AC0BA1292A082D05AF002B082E05B000FB
:100358002F0830040319B329A701A70AB429A70154
:100368000130E82210308312AC00AC0BB929000030
:100378008312A701A70A0230E82210308312AC00CA
:10038800AC0BC42900008312A7010230E822013017
:100398008312B1070318B20A0030B2073208803A54
:1003A800DF0080305F02031DDB2910303102031C9F
:1003B80097298312A701A70A0530E8220800003010
:1003C8008312BC000030BB000030BA000030B90016
:1003D800301C022A3408B907350803110318013EF6
:1003E800031DBA07360803110318013E031DBB0796
:1003F800370803110318013E031DBC070130B8007C
:100408000310B40DB50DB60DB70DB80B042A0130A5
:100418000310B30CB20CB10CB00CFF3E031D0C2A38
:100428003308320431043004031DEC293C08B300BE
:100438003B08B2003A08B1003908B000080083123E
:10044800AB01AC01270828040319592A0130AD0073
:10045800A81B382A01300310A70DA80DFF3E031D65
:100468002F2A0130AD072C2A01300310AB0DAC0D3B
:10047800FF3E031D392A28082A02031D452A27089A
:100488002902031C4E2A2708A9022808031CAA03CC
:10049800AA022B1401300310A80CA70CFF3E031D61
:1004A8004F2A0130AD02031D382A2C08A8002B085A
:1004B800A700080083122E082F0403198A2A013086
:1004C800B200AF1B712A01300310AE0DAF0DFF3E15
:1004D800031D682A0130B207652A2F083102031D5F
:1004E800772A2E083002031C7F2A2E08B0022F0814
:1004F800031CB103B10201300310AF0CAE0CFF3E78
:10050800031D802A0130B202031D712A3108AF0091
:100518003008AE00080083129F188F2A9F1F9B2A5D
:100528001E08A80083161E088312A7000800831659
:100538001E088312A90006300310A90CFF3E031DF4
:10054800A02A2908AA00AB011E08AC00AD010310BF
:10055800AC0DAD0D0310AC0DAD0D2A082C04AE008A
:100568002B082D04AF002E08A7002F08A8000800AC
:100578000B1CE02AA501A60103307B23003A031DCA
:10058800DF2A01308312A5070318A60A0030A60740
:100598002130A200A20BCE2A0B3083122602B930DA
:1005A80003192502031CC02A4A08031DDD2A01304D
:1005B800DE2A0030CA000B10831224088A00230E9A
:1005C8008300DE0E5E0E09008312A9002703031DB7
:1005D800F92A0130A800290AF32A0310A80DFF3EC2
:1005E800031DF12A2808CB04052B0130A800290A8D
:1005F800FF2A0310A80DFF3E031DFD2A2808FF3A15
:10060800CB054B088500080000308312AA0009308A
:10061800AB0090210F308312AA000A30AB00902162
:10062800F7308312AA00FB30AB009021013083120F
:10063800AA000C30AB00902100308312AA000F30C2
:10064800AB00902108008312A701A70AA801A80AF5
:10065800A90101301A218312A701A70AA801A9013B
:1006680002301A218312A701A70AA801A80AA90122
:1006780005301A21080001308312B5003508B3008F
:10068800B4013308B400B3013308AA003408AB003E
:10069800902101308312B50709303502031808008C
:1006A800422B8312B8003308B400B5013808B600ED
:1006B800B7013608B700B60134083604AA00350871
:1006C8003704AB009021080083161F140514FD3071
:1006D8009F05FD308505FB309F05FB308505851599
:1006E800F7309F05EF308505DF3085050800831258
:1006F800A1000130A000210A832B0310A00DFF3EAA
:10070800031D812B2008050503198C2B01300800D7
:10071800003008008312A800F3309F052808A700BE
:1007280001300310A70DFF3E031D952B0310270D65
:100738009F049F14080003308A000408840A820773
:1007480000347E3430346D34793433345B345F3480
:1007580070347F347B348312A701A801A901A90A48
:1007680003301A218312A701A70AA801A90104309E
:100778001A21080083121F14BF309F051F088F30ED
:0E07880083169F051F167F3083129F05080001
:02400E009431EB
:00000001FF
