:020000000B28CB
:10000800DE00030E8312A3000A08A4009C2A0C2811
:100018008312C801C901CA01CB01CC01830114288C
:100028002B23822391230023E522831696158B1711
:100038000B178B1583124A0803191E2800307223E8
:1000480017231D30B30004303E231530B3000330AE
:100058003E23C7013E284A08031942280D30BE0036
:10006800FB30BD00BD0B3628BE0B36283B280130BF
:100078008312C70764304702031C2F281723A701E0
:10008800A70A0430C62270222708BD002808BE002F
:10009800BF01C0014008B3003F08B2003E08B100EC
:1000A8003D08B0000030B7000030B6000030B500A1
:1000B8005930B400C7213008C1003108C2003208E5
:1000C800C3003308C4000A300310C40CC30CC20CAC
:1000D800C10CFF3E031D68284108013EC8004208C4
:1000E8000318013E003EC900EE284A080319F22809
:1000F8000530BF000F30BE00F130BD00BD0B8228B7
:10010800BE0B8228BF0B822858308312A70002300A
:10011800A8004908AA004808A90006222708013EA5
:1001280084006223B30004303E230A30AE0000305E
:10013800AF003C30A7000030A8004908AA004808D2
:10014800A90006222808B1002708B00040222E087E
:10015800013E84006223B30003303E230A30A70027
:100168000030A8004908B1004808B0003C30AE0093
:100178000030AF0040222F08AA002E08A90006224E
:100188002708013E84006223B30002303E23490859
:10019800B1004808B0003C30AE000030AF0040224B
:1001A8002F08C6002E08C5000A30AE000030AF0088
:1001B8004608B1004508B00040222E08013E8400E0
:1001C8006223B30001303E230130C8020030031C13
:1001D800C903C90248084904031D7928A701043046
:1001E800C622CA0117231D30B30005303E2347300D
:1001F800B30004303E234730B30003303E231E28AB
:10020800B000270803191C290130AA00300A0E295A
:100218000310AA0DFF3E031D0C292A08FF3A831676
:1002280005058312AB00AC012B08AE002C0832295F
:10023800300ADF000130AA000030AB002629031085
:10024800AA0DAB0DDF0B23292A0883160504831298
:10025800AC002B08AD002C08AE002D08AF002E080E
:100268008316850083122703031D57292803031DBE
:1002780049290130AA00300A43290310AA0DFF3E7C
:10028800031D41292A08CB0455290130AA00300A48
:100298004F290310AA0DFF3E031D4D292A08FF3AD6
:1002A800CB054B0885002903031D6B297F30831676
:1002B800810501308312AA00300A64290310AA0DAF
:1002C800FF3E031D62292A088316950408000130A1
:1002D800AA00300A71290310AA0DFF3E031D6F29D9
:1002E8002A08FF3A831695050800A7010530C6229B
:1002F800B101B201831231080F3CAC00AC0A0130E5
:10030800AD000030AE008B290310AD0DAE0DAC0B67
:1003180088292A082D05AF002B082E05B0002F08C4
:10032800300403199A29A701A70A9B29A7010130BC
:10033800C6221030AC00AC0B9F2900008312A70125
:10034800A70A0230C6221030AC00AC0BA929000065
:100358008312A7010230C6220130B1070318B20A7E
:100368000030B2073208803ADF0080305F02031D98
:10037800BF2910303102031C7E298312A701A70A66
:100388000530C62208000030BC000030BB00003039
:10039800BA000030B900301CE5293408B90735081F
:1003A80003110318013E031DBA0736080311031889
:1003B800013E031DBB07370803110318013E031D47
:1003C800BC070130B8000310B40DB50DB60DB70D5C
:1003D800B80BE72901300310B30CB20CB10CB00C08
:1003E800FF3E031DEF293308320431043004031D96
:1003F800CF293C08B3003B08B2003A08B1003908DD
:10040800B0000800AB01AC012708280403193B2AF7
:100418000130AD00A81B1A2A01300310A70DA80D42
:10042800FF3E031D112A0130AD070E2A01300310CB
:10043800AB0DAC0DFF3E031D1B2A28082A02031D25
:10044800272A27082902031C302A2708A902280876
:10045800031CAA03AA022B1401300310A80CA70C32
:10046800FF3E031D312A0130AD02031D1A2A2C0854
:10047800A8002B08A70008002E082F0403196B2AD0
:100488000130B200AF1B522A01300310AE0DAF0D80
:10049800FF3E031D492A0130B207462A2F083102C0
:1004A800031D582A2E083002031C602A2E08B002A9
:1004B8002F08031CB103B10201300310AF0CAE0CBE
:1004C800FF3E031D612A0130B202031D522A310882
:1004D800AF003008AE0008009F18702A9F1F7B2AC3
:1004E8001E08A80083161E088312A700080083169A
:1004F8001E088312A90006300310A90CFF3E031D35
:10050800802A2908AA00AB011E08AC00AD0103101F
:10051800AC0DAD0D0310AC0DAD0D2A082C04AE00CA
:100528002B082D04AF002E08A7002F08A8000800EC
:100538000B1CBF2AA501A60103305023003A031D56
:10054800BE2A0130A5070318A60A0030A6072130E5
:10055800A200A20BAD2A0B3083122602B930031970
:100568002502031CA02A4A08031DBC2A0130BD2A03
:100578000030CA000B1024088A00230E8300DE0E08
:100588005E0E0900A9002703031DD62A0130A80022
:10059800290AD02A0310A80DFF3E031DCE2A2808D9
:1005A800CB04E22A0130A800290ADC2A0310A80D8E
:1005B800FF3E031DDA2A2808FF3ACB054B088500C1
:1005C800080000308312AA000930AB0079210F30EF
:1005D800AA000A30AB007921F730AA00FB30AB0043
:1005E80079210130AA000C30AB0079210030AA0033
:1005F8000F30AB0079210800A701A70AA801A80AB3
:10060800A901013004218312A701A70AA801A901A1
:10061800023004218312A701A70AA801A80AA90188
:100628000530042108000130B5003508B300B401D5
:100638003308B400B3013308AA003408AB007921A9
:100648000130B5070930350203180800192B831645
:100658001F140514FD309F05FD308505FB309F05EF
:10066800FB3085058515F7309F05EF308505DF30B0
:1006780085050800B8003308B400B5013808B6008D
:10068800B7013608B700B60134083604AA003508A1
:100698003704AB0079210800A1000130A000210A2D
:1006A800572B0310A00DFF3E031D552B20080505F1
:1006B8000319602B013008000030080003308A005D
:1006C8000408840A820700347E3430346D34793467
:1006D80033345B345F3470347F347B34A800F330B8
:1006E8009F052808A70001300310A70DFF3E031D32
:1006F800782B0310270D9F049F1408008312A7016D
:10070800A801A901A90A033004218312A701A70A95
:10071800A801A90104300421080083121F14BF3066
:100728009F051F088F3083169F051F167F30831281
:040738009F05080011
:02400E009431EB
:00000001FF
