:020000000B28CB
:10000800DE00030E8312A3000A08A4009D2A0C2810
:100018008312C801C901CA01CB01CC01830114288C
:100028002C23832392230123E622831696158B170C
:100038000B178B1583124A0803191E2800307323E7
:1000480018231D30B30004303F231530B3000330AC
:100058003F23C7013E284A08031942280D30BE0035
:10006800FB30BD00BD0B3628BE0B36283B280130BF
:100078008312C70764304702031C2F281823A701DF
:10008800A70A0430C72271222708BD002808BE002D
:10009800BF01C0014008B3003F08B2003E08B100EC
:1000A8003D08B0000030B7000030B6000030B500A1
:1000B8005930B400C8213008C1003108C2003208E4
:1000C800C3003308C4000A300310C40CC30CC20CAC
:1000D800C10CFF3E031D68284108013EC8004208C4
:1000E8000318013E003EC900EF284A080319F32807
:1000F8005830A7000230A8004908AA004808A900FB
:1001080007222708013E84006323B30004303F23FD
:100118000A30AE000030AF003C30A7000030A80025
:100128004908AA004808A90007222808B10027089A
:10013800B00041222E08013E84006323B30003303F
:100148003F230A30A7000030A8004908B10048083A
:10015800B0003C30AE000030AF0041222F08AA00AA
:100168002E08A90007222708013E84006323B30054
:1001780002303F234908B1004808B0003C30AE00C7
:100188000030AF0041222F08C6002E08C5000A30F3
:10019800AE000030AF004608B1004508B00041226B
:1001A8002E08013E84006323B30001303F2305304D
:1001B800BF009130BE00CF30BD00BD0BE128BE0BA3
:1001C800E128BF0BE128E82801308312C80200307B
:1001D800031CC903C90248084904031D7928A7015B
:1001E8000430C722CA0118231D30B30005303F234D
:1001F8004730B30004303F234730B30003303F2378
:100208001E28B000270803191D290130AA00300A4A
:100218000F290310AA0DFF3E031D0D292A08FF3AD6
:10022800831605058312AB00AC012B08AE002C0821
:100238003329300ADF000130AA000030AB0027293B
:100248000310AA0DAB0DDF0B24292A088316050419
:100258008312AC002B08AD002C08AE002D08AF00AF
:100268002E088316850083122703031D58292803A7
:10027800031D4A290130AA00300A44290310AA0D97
:10028800FF3E031D42292A08CB0456290130AA0043
:10029800300A50290310AA0DFF3E031D4E292A08D3
:1002A800FF3ACB054B0885002903031D6C297F30D5
:1002B8008316810501308312AA00300A65290310CC
:1002C800AA0DFF3E031D63292A088316950408001A
:1002D8000130AA00300A72290310AA0DFF3E031D3F
:1002E80070292A08FF3A831695050800A7010530EA
:1002F800C722B101B201831231080F3CAC00AC0A2D
:100308000130AD000030AE008C290310AD0DAE0DEC
:10031800AC0B89292A082D05AF002B082E05B00043
:100328002F08300403199B29A701A70A9C29A701B4
:100338000130C7221030AC00AC0BA029000083129A
:10034800A701A70A0230C7221030AC00AC0BAA29BB
:1003580000008312A7010230C7220130B107031839
:10036800B20A0030B2073208803ADF0080305F02FC
:10037800031DC02910303102031C7F298312A701F5
:10038800A70A0530C72208000030BC000030BB00B7
:100398000030BA000030B900301CE6293408B9072B
:1003A800350803110318013E031DBA073608031167
:1003B8000318013E031DBB07370803110318013E4C
:1003C800031DBC070130B8000310B40DB50DB60D00
:1003D800B70DB80BE82901300310B30CB20CB10CFF
:1003E800B00CFF3E031DF0293308320431043004F9
:1003F800031DD0293C08B3003B08B2003A08B100FD
:100408003908B0000800AB01AC012708280403191B
:100418003C2A0130AD00A81B1B2A01300310A70D90
:10042800A80DFF3E031D122A0130AD070F2A013027
:100438000310AB0DAC0DFF3E031D1C2A28082A0231
:10044800031D282A27082902031C312A2708A90284
:100458002808031CAA03AA022B1401300310A80CB5
:10046800A70CFF3E031D322A0130AD02031D1B2AD3
:100478002C08A8002B08A70008002E082F04031931
:100488006C2A0130B200AF1B532A01300310AE0DA5
:10049800AF0DFF3E031D4A2A0130B207472A2F0835
:1004A8003102031D592A2E083002031C612A2E0826
:1004B800B0022F08031CB103B10201300310AF0CC6
:1004C800AE0CFF3E031D622A0130B202031D532AFF
:1004D8003108AF003008AE0008009F18712A9F1F2E
:1004E8007C2A1E08A80083161E088312A70008008D
:1004F80083161E088312A90006300310A90CFF3EBC
:10050800031D812A2908AA00AB011E08AC00AD0111
:100518000310AC0DAD0D0310AC0DAD0D2A082C0465
:10052800AE002B082D04AF002E08A7002F08A80046
:1005380008000B1CC02AA501A60103305123003A6C
:10054800031DBF2A0130A5070318A60A0030A60715
:100558002130A200A20BAE2A0B3083122602B9303A
:1005680003192502031CA12A4A08031DBD2A0130CC
:10057800BE2A0030CA000B1024088A00230E83000C
:10058800DE0E5E0E0900A9002703031DD72A0130DD
:10059800A800290AD12A0310A80DFF3E031DCF2A5F
:1005A8002808CB04E32A0130A800290ADD2A031011
:1005B800A80DFF3E031DDB2A2808FF3ACB054B0890
:1005C8008500080000308312AA000930AB007A21A8
:1005D8000F30AA000A30AB007A21F730AA00FB30AE
:1005E800AB007A210130AA000C30AB007A21003030
:1005F800AA000F30AB007A210800A701A70AA801BA
:10060800A80AA901013005218312A701A70AA80198
:10061800A901023005218312A701A70AA801A80A87
:10062800A9010530052108000130B5003508B300DF
:10063800B4013308B400B3013308AA003408AB008E
:100648007A210130B50709303502031808001A2B42
:1006580083161F140514FD309F05FD308505FB30FA
:100668009F05FB3085058515F7309F05EF3085051B
:10067800DF3085050800B8003308B400B501380834
:10068800B600B7013608B700B60134083604AA0028
:1006980035083704AB007A210800A1000130A0001A
:1006A800210A582B0310A00DFF3E031D562B2008CE
:1006B80005050319612B01300800003008000330DC
:1006C8008A000408840A820700347E3430346D348A
:1006D800793433345B345F3470347F347B34A8002E
:1006E800F3309F052808A70001300310A70DFF3E2F
:1006F800031D792B0310270D9F049F1408008312F4
:10070800A701A801A901A90A033005218312A7019D
:10071800A70AA801A90104300521080083121F14A3
:10072800BF309F051F088F3083169F051F167F3027
:0607380083129F0508007A
:02400E009431EB
:00000001FF
