:020000000B28CB
:10000800DE00030E8312A3000A08A4007B2A0C2832
:100018008312C901CA01CB01CC01CD018301142887
:10002800A023D423E32348232923831696158B176B
:100038000B178B151F290030B32360231D30831243
:10004800BC0004308D2315308312BC0003308D238F
:100058008312C8013B280D30C300FB30C200C20B1D
:100068003328C30B3328382801308312C80764307B
:10007800480203184028412846284B08031D4528F4
:1000880046282F2860238312A701A70A04300723D4
:10009800FC308312B0000330B100B0220310831289
:1000A800270DB200280DB300FF2183123008053E4A
:1000B800B70031080318013E003EB8000A30B90005
:1000C8000030BA00E12283123808CA003708C90094
:1000D800FF287030B0001730B1004A08B300490853
:1000E800B200FF2183123008013E8400C423BC0003
:1000F80004308D230A308312B7000030B80058301E
:10010800B0000230B1004A08B3004908B200FF212C
:1001180083123108BA003008B90042228312370826
:10012800013E8400C423BC0003308D230A308312AF
:10013800B0000030B1004A08B3004908B200FF21FE
:1001480083123108BA003008B9003C30B7000030DB
:10015800B800422283123808C5003708C4000A30A4
:10016800B0000030B1004508B3004408B200FF21D8
:1001780083123008013E8400C423BC0002308D2362
:100188000A308312B0000030B1004A08B3004908B1
:10019800B200FF2183123108BA003008B9003C30A0
:1001A800B7000030B800422283123808C700370869
:1001B800C6000A30B7000030B8004708BA00460841
:1001C800B900422283123708013E8400C423BC00D0
:1001D80001308D2380308312C3004430C200C20B2B
:1001E800F328C30BF328000001308312C902003042
:1001F800031CCA03CA0249084A0403190429052929
:100208000A294B08031D09290A296D28A70104306A
:1002180007238312CB0160231D308312BC000530F5
:100228008D2347308312BC0004308D23473083125E
:10023800BC0003308D2383124B08031D2429252974
:100248001F281F290B288312B000270803192D29FE
:100258002E2943290130AA00300A34290310AA0D97
:10026800FF3E031D32292A08FF3A8316050583122B
:10027800AB00AC012B08AE002C08AF005A29300A9D
:10028800DF000130AA000030AB004D290310AA0D91
:10029800AB0DDF0B4A292A08831605048312AC002C
:1002A8002B08AD002C08AE002D08AF002E088316D1
:1002B800850083122703031D6229632982292803E5
:1002C800031D6729682974290130AA00300A6E299C
:1002D8000310AA0DFF3E031D6C292A08CC048029AF
:1002E8000130AA00300A7A290310AA0DFF3E031D27
:1002F80078292A08FF3ACC054C0885002903031DF4
:100308008629872998297F30831681050130831231
:10031800AA00300A91290310AA0DFF3E031D8F2958
:100328002A0883169504A5290130AA00300A9E29B7
:100338000310AA0DFF3E031D9C292A08FF3A8316C5
:10034800950508008312A701053007238312B10120
:10035800B201831231080F3CAC00AC0A0130AD0089
:100368000030AE00BA290310AD0DAE0DAC0BB729A5
:100378002A082D05AF002B082E05B0002F083004E1
:100388000319C729C829CD29A701A70A01300723BE
:10039800D029A7010130072310308312AC00AC0B21
:1003A800D32900008312A701A70A023007231030BF
:1003B8008312AC00AC0BDE2900008312A7010230C7
:1003C800072301308312B1070318B20A0030B207BD
:1003D8003208803ADF0080305F02031DF5291030B3
:1003E8003102031CF829F929AD298312A701A70AAC
:1003F8000530072308008312B401B5013008310421
:100408000319072A082A3D2A0130B600142A0130A8
:100418000310B00DB10DFF3E031D0C2A0130B607C5
:10042800B11F172A182A0B2A01300310B40DB50D75
:10043800FF3E031D192A31083302031D252A3008FF
:100448003202031C282A292A302A3008B20231082D
:10045800031CB303B302341401300310B10CB00C05
:10046800FF3E031D312A0130B602031D3C2A3D2AF6
:10047800182A3508B1003408B0000800831237087C
:1004880038040319482A492A762A0130BB00552A1C
:1004980001300310B70DB80DFF3E031D4D2A013082
:1004A800BB07B81F582A592A4C2A38083A02031D94
:1004B8005F2A37083902031C622A632A692A370827
:1004C800B9023808031CBA03BA0201300310B80C89
:1004D800B70CFF3E031D6A2A0130BB02031D752AB3
:1004E800762A592A3A08B8003908B70008000B1CC0
:1004F8007E2A7F2AA82AA501A601A02A01308312F4
:10050800A5070318A60A0030A6072130A200A20BEF
:100518008B2A0B3083122602B93003192502031CDB
:10052800962A972AA02A4B0803199B2A9D2A01304C
:100538009E2A0030CB00A72A03307823003A0319FB
:10054800A62AA72A822A0B10831224088A00230EBF
:100558008300DE0E5E0E090083129F18B42AB52AA6
:10056800B02A9F1FB82AB92AC02A1E08A8008316D5
:100578001E088312A700E02A83161E088312A9000A
:1005880006300310A90CFF3E031DC52A2908AA003E
:10059800AB011E08AC00AD010310AC0DAD0D03108E
:1005A800AC0DAD0D2A082C04AE002B082D04AF00AD
:1005B8002E08A7002F08A80008008312BB01BC0161
:1005C800371CE72AE82AEE2A3908BB070318BC0AB1
:1005D8003A08BC0701300310B90DBA0DFF3E031DE0
:1005E800EF2A01300310B80CB70CFF3E031DF62AA2
:1005F80037083804031D012B022BE42A3C08B800F5
:100608003B08B70008008312A9002703031D0D2B20
:100618000E2B1A2B0130A800290A142B0310A80D41
:10062800FF3E031D122B2808CC04262B0130A800FE
:10063800290A202B0310A80DFF3E031D1E2B280896
:10064800FF3ACC054C088500080000308312AA0048
:100658000930AB00A6210F308312AA000A30AB0084
:10066800A621F7308312AA00FB30AB00A621013087
:100678008312AA000C30AB00A62100308312AA0016
:100688000F30AB00A62108008312A701A70AA80112
:10069800A80AA901013027218312A701A70AA801E6
:1006A800A901023027218312A701A70AA801A80AD5
:1006B800A90105302721080001308312B50035084B
:1006C800B300B4013308B400B3013308AA003408F6
:1006D800AB00A62101308312B50709303502031C8F
:1006E800762B772B632B08008312A1000130A00022
:1006F800210A802B0310A00DFF3E031D7E2B20082E
:1007080005050319882B892B8B2B01308C2B003086
:1007180008008312C1003C08BD00BE014108BF00AB
:10072800C0013F08C000BF013D083F04AA003E08C1
:100738004004AB00A621080083161F140514FD30E1
:100748009F05FD308505FB309F05FB308505851528
:10075800F7309F05EF308505DF30850508008312E7
:10076800A800F3309F052808A70001300310A70D43
:10077800FF3E031DBA2B0310270D9F049F1408008A
:1007880003308A000408840A820700347E34303437
:100798006D34793433345B345F3470347F347B3474
:1007A8008312A701A801A901A90A033027218312EE
:1007B800A701A70AA801A90104302721080083126C
:1007C8001F14BF309F051F088F3083169F051F1603
:0807D8007F3083129F05080029
:02400E009431EB
:00000001FF
