:020000000F28C7
:10000800DE00030E8312B5000408B6000A08B70024
:100018005F08B800722910288312C301C401C50102
:100028008301812A8312C200390803192F2801305D
:10003800BC00420A21280310BC0DFF3E031D1F28E7
:100048003C08FF3A831605058312BD00BE013D0832
:10005800C0003E084528420ADF000130BC000030DD
:10006800BD0039280310BC0DBD0DDF0B36283C0838
:10007800831605048312BE003D08BF003E08C00079
:100088003F08C10040088316850083123903031D09
:100098006A283A03031D5C280130BC00420A56282E
:1000A8000310BC0DFF3E031D54283C08C5046828F6
:1000B8000130BC00420A62280310BC0DFF3E031D3C
:1000C80060283C08FF3AC505450885003B03031D29
:1000D8007E287F308316810501308312BC00420AD6
:1000E80077280310BC0DFF3E031D75283C088316B6
:1000F800950408000130BC00420A84280310BC0D96
:10010800FF3E031D82283C08FF3A83169505080028
:1001180000308312AC000030AB000030AA00003081
:10012800A90023082204210420040319E02801302F
:10013800AD00A31BAB280130A8000310A00DA10D32
:10014800A20DA30DA80BA1280130AD079D280130F1
:10015800A8000310A90DAA0DAB0DAC0DA80BAD2876
:1001680023082702031DC22822082602031DC228CD
:1001780021082502031DC22820082402031CD328B5
:100188002008A4022108031C210FA5022208031C31
:10019800220FA6022308031C230FA70229140130EB
:1001A8000310A30CA20CA10CA00CFF3E031DD42825
:1001B8000130AD02031DAB282C08A3002B08A200B8
:1001C8002A08A1002908A000080083122308220495
:1001D8002104200403192B290130A900A31B00299D
:1001E8000130A8000310A00DA10DA20DA30DA80BAE
:1001F800F6280130A907F22823082702031D0E2933
:1002080022082602031D0E2921082502031D0E2996
:1002180020082402031C1E292008A4022108031C0C
:10022800210FA5022208031C220FA6022308031C83
:10023800230FA70201300310A30CA20CA10CA00CE1
:10024800FF3E031D1F290130A902031D00292708AD
:10025800A3002608A2002508A1002408A000080081
:100268008312B4010030A3000030A2000030A100C6
:100278000A30A0003308A7003208A6003108A500FC
:100288003008A400E92083122008013E840055228A
:10029800AA003408013E1E2200308312A300003059
:1002A800A2000030A1000A30A0003308A7003208DD
:1002B800A6003108A5003008A4008C20831223086A
:1002C800B3002208B2002108B1002008B0000130B4
:1002D800B407083034020318080036290B1C8A2991
:1002E800851D82294408031D82290030B30000308F
:1002F800B2000330B100E830B00034218312851D0C
:100308008729013088290030C4000B1038083708C5
:100318008A0036088400350E8300DE0E5E0E090062
:100328008312BB003903031DA5290130BA003B0A1B
:100338009F290310BA0DFF3E031D9D293A08C504E5
:10034800B1290130BA003B0AAB290310BA0DFF3EB0
:10035800031DA9293A08FF3AC50545088500080084
:100368008312A2002003031DC5290130A100220A1F
:10037800BF290310A10DFF3E031DBD292108C50497
:10038800D1290130A100220ACB290310A10DFF3E7B
:10039800031DC9292108FF3AC5054508850008003D
:1003A80000308312BC000930BD0031220F308312A7
:1003B800BC000A30BD003122F7308312BC00FB308C
:1003C800BD00312201308312BC000C30BD00312247
:1003D80000308312BC000F30BD00312208008312A8
:1003E800B901B90ABA01BA0ABB0101301620831251
:1003F800B901B90ABA01BB01023016208312B9014A
:10040800B90ABA01BA0ABB010530162008008316DA
:100418001F140514FD309F05FD308505FB309F0531
:10042800FB3085058515F7309F05EF308505DF30F2
:10043800850508008312AF002A08AB00AC012F081D
:10044800AD00AE012D08AE00AD012B082D04A300B0
:100458002C082E04A4004322080001308312BE0099
:100468000130BE0706303E02031C342AB9010530AC
:1004780094218312B901B90A05309421080001308A
:100488008312A5000130A50706302502031C462A61
:10049800A0010530B4218312A001A00A0530B421BF
:1004A800080002308A000408840A820700347E3477
:1004B80030346D34793433345B345F3470347F34A2
:1004C8007B348312B901BA01BB01BB0A0330162081
:1004D8008312B901B90ABA01BB0104301620080019
:1004E80083121F14BF309F051F088F3083169F0586
:1004F8001F167F3083129F0508000B226522742285
:10050800F321D421831696158B170B178B158B2A7D
:02400E009431EB
:00000001FF
